{
  "_format": "hh-sol-artifact-1",
  "contractName": "Medicine",
  "sourceName": "contracts/Medicine.sol",
  "abi": [
    {
      "inputs": [
        {
          "internalType": "address",
          "name": "marketAddress",
          "type": "address"
        }
      ],
      "stateMutability": "nonpayable",
      "type": "constructor"
    },
    {
      "anonymous": false,
      "inputs": [
        {
          "indexed": true,
          "internalType": "address",
          "name": "owner",
          "type": "address"
        },
        {
          "indexed": true,
          "internalType": "address",
          "name": "approved",
          "type": "address"
        },
        {
          "indexed": true,
          "internalType": "uint256",
          "name": "tokenId",
          "type": "uint256"
        }
      ],
      "name": "Approval",
      "type": "event"
    },
    {
      "anonymous": false,
      "inputs": [
        {
          "indexed": true,
          "internalType": "address",
          "name": "owner",
          "type": "address"
        },
        {
          "indexed": true,
          "internalType": "address",
          "name": "operator",
          "type": "address"
        },
        {
          "indexed": false,
          "internalType": "bool",
          "name": "approved",
          "type": "bool"
        }
      ],
      "name": "ApprovalForAll",
      "type": "event"
    },
    {
      "anonymous": false,
      "inputs": [
        {
          "indexed": true,
          "internalType": "uint256",
          "name": "medicineId",
          "type": "uint256"
        }
      ],
      "name": "MedicineCreated",
      "type": "event"
    },
    {
      "anonymous": false,
      "inputs": [
        {
          "indexed": true,
          "internalType": "address",
          "name": "from",
          "type": "address"
        },
        {
          "indexed": true,
          "internalType": "address",
          "name": "to",
          "type": "address"
        },
        {
          "indexed": true,
          "internalType": "uint256",
          "name": "tokenId",
          "type": "uint256"
        }
      ],
      "name": "Transfer",
      "type": "event"
    },
    {
      "inputs": [
        {
          "internalType": "uint256",
          "name": "",
          "type": "uint256"
        }
      ],
      "name": "_creators",
      "outputs": [
        {
          "internalType": "address",
          "name": "",
          "type": "address"
        }
      ],
      "stateMutability": "view",
      "type": "function"
    },
    {
      "inputs": [],
      "name": "_marketAddress",
      "outputs": [
        {
          "internalType": "address",
          "name": "",
          "type": "address"
        }
      ],
      "stateMutability": "view",
      "type": "function"
    },
    {
      "inputs": [
        {
          "internalType": "address",
          "name": "to",
          "type": "address"
        },
        {
          "internalType": "uint256",
          "name": "tokenId",
          "type": "uint256"
        }
      ],
      "name": "approve",
      "outputs": [],
      "stateMutability": "nonpayable",
      "type": "function"
    },
    {
      "inputs": [
        {
          "internalType": "address",
          "name": "owner",
          "type": "address"
        }
      ],
      "name": "balanceOf",
      "outputs": [
        {
          "internalType": "uint256",
          "name": "",
          "type": "uint256"
        }
      ],
      "stateMutability": "view",
      "type": "function"
    },
    {
      "inputs": [],
      "name": "baseURI",
      "outputs": [
        {
          "internalType": "string",
          "name": "",
          "type": "string"
        }
      ],
      "stateMutability": "view",
      "type": "function"
    },
    {
      "inputs": [
        {
          "internalType": "string",
          "name": "medicineURI",
          "type": "string"
        }
      ],
      "name": "createNewMedicine",
      "outputs": [
        {
          "internalType": "uint256",
          "name": "",
          "type": "uint256"
        }
      ],
      "stateMutability": "nonpayable",
      "type": "function"
    },
    {
      "inputs": [
        {
          "internalType": "uint256",
          "name": "tokenId",
          "type": "uint256"
        }
      ],
      "name": "getApproved",
      "outputs": [
        {
          "internalType": "address",
          "name": "",
          "type": "address"
        }
      ],
      "stateMutability": "view",
      "type": "function"
    },
    {
      "inputs": [
        {
          "internalType": "uint256",
          "name": "medicineId",
          "type": "uint256"
        }
      ],
      "name": "getMedicineCreator",
      "outputs": [
        {
          "internalType": "address",
          "name": "",
          "type": "address"
        }
      ],
      "stateMutability": "view",
      "type": "function"
    },
    {
      "inputs": [],
      "name": "getMedicinesCreatedBySender",
      "outputs": [
        {
          "internalType": "uint256[]",
          "name": "",
          "type": "uint256[]"
        }
      ],
      "stateMutability": "view",
      "type": "function"
    },
    {
      "inputs": [],
      "name": "getMedicinesOwnedByMe",
      "outputs": [
        {
          "internalType": "uint256[]",
          "name": "",
          "type": "uint256[]"
        }
      ],
      "stateMutability": "view",
      "type": "function"
    },
    {
      "inputs": [
        {
          "internalType": "address",
          "name": "owner",
          "type": "address"
        },
        {
          "internalType": "address",
          "name": "operator",
          "type": "address"
        }
      ],
      "name": "isApprovedForAll",
      "outputs": [
        {
          "internalType": "bool",
          "name": "",
          "type": "bool"
        }
      ],
      "stateMutability": "view",
      "type": "function"
    },
    {
      "inputs": [],
      "name": "name",
      "outputs": [
        {
          "internalType": "string",
          "name": "",
          "type": "string"
        }
      ],
      "stateMutability": "view",
      "type": "function"
    },
    {
      "inputs": [
        {
          "internalType": "uint256",
          "name": "tokenId",
          "type": "uint256"
        }
      ],
      "name": "ownerOf",
      "outputs": [
        {
          "internalType": "address",
          "name": "",
          "type": "address"
        }
      ],
      "stateMutability": "view",
      "type": "function"
    },
    {
      "inputs": [
        {
          "internalType": "address",
          "name": "from",
          "type": "address"
        },
        {
          "internalType": "address",
          "name": "to",
          "type": "address"
        },
        {
          "internalType": "uint256",
          "name": "tokenId",
          "type": "uint256"
        }
      ],
      "name": "safeTransferFrom",
      "outputs": [],
      "stateMutability": "nonpayable",
      "type": "function"
    },
    {
      "inputs": [
        {
          "internalType": "address",
          "name": "from",
          "type": "address"
        },
        {
          "internalType": "address",
          "name": "to",
          "type": "address"
        },
        {
          "internalType": "uint256",
          "name": "tokenId",
          "type": "uint256"
        },
        {
          "internalType": "bytes",
          "name": "_data",
          "type": "bytes"
        }
      ],
      "name": "safeTransferFrom",
      "outputs": [],
      "stateMutability": "nonpayable",
      "type": "function"
    },
    {
      "inputs": [
        {
          "internalType": "address",
          "name": "operator",
          "type": "address"
        },
        {
          "internalType": "bool",
          "name": "approved",
          "type": "bool"
        }
      ],
      "name": "setApprovalForAll",
      "outputs": [],
      "stateMutability": "nonpayable",
      "type": "function"
    },
    {
      "inputs": [
        {
          "internalType": "bytes4",
          "name": "interfaceId",
          "type": "bytes4"
        }
      ],
      "name": "supportsInterface",
      "outputs": [
        {
          "internalType": "bool",
          "name": "",
          "type": "bool"
        }
      ],
      "stateMutability": "view",
      "type": "function"
    },
    {
      "inputs": [],
      "name": "symbol",
      "outputs": [
        {
          "internalType": "string",
          "name": "",
          "type": "string"
        }
      ],
      "stateMutability": "view",
      "type": "function"
    },
    {
      "inputs": [
        {
          "internalType": "uint256",
          "name": "index",
          "type": "uint256"
        }
      ],
      "name": "tokenByIndex",
      "outputs": [
        {
          "internalType": "uint256",
          "name": "",
          "type": "uint256"
        }
      ],
      "stateMutability": "view",
      "type": "function"
    },
    {
      "inputs": [
        {
          "internalType": "address",
          "name": "owner",
          "type": "address"
        },
        {
          "internalType": "uint256",
          "name": "index",
          "type": "uint256"
        }
      ],
      "name": "tokenOfOwnerByIndex",
      "outputs": [
        {
          "internalType": "uint256",
          "name": "",
          "type": "uint256"
        }
      ],
      "stateMutability": "view",
      "type": "function"
    },
    {
      "inputs": [
        {
          "internalType": "uint256",
          "name": "tokenId",
          "type": "uint256"
        }
      ],
      "name": "tokenURI",
      "outputs": [
        {
          "internalType": "string",
          "name": "",
          "type": "string"
        }
      ],
      "stateMutability": "view",
      "type": "function"
    },
    {
      "inputs": [],
      "name": "totalSupply",
      "outputs": [
        {
          "internalType": "uint256",
          "name": "",
          "type": "uint256"
        }
      ],
      "stateMutability": "view",
      "type": "function"
    },
    {
      "inputs": [
        {
          "internalType": "address",
          "name": "from",
          "type": "address"
        },
        {
          "internalType": "address",
          "name": "to",
          "type": "address"
        },
        {
          "internalType": "uint256",
          "name": "tokenId",
          "type": "uint256"
        }
      ],
      "name": "transferFrom",
      "outputs": [],
      "stateMutability": "nonpayable",
      "type": "function"
    }
  ],
  "bytecode": "0x60806040523480156200001157600080fd5b506040516200227738038062002277833981810160405260208110156200003757600080fd5b5051604080518082018252600d81526c26b2b234b1b4b732aa37b5b2b760991b6020828101919091528251808401909352600883526753756d616e74726160c01b9083015290620000986301ffc9a760e01b6001600160e01b036200013d16565b8151620000ad906006906020850190620001c2565b508051620000c3906007906020840190620001c2565b50620000df6380ac58cd60e01b6001600160e01b036200013d16565b620000fa635b5e139f60e01b6001600160e01b036200013d16565b6200011563780e9d6360e01b6001600160e01b036200013d16565b5050600a80546001600160a01b0319166001600160a01b039290921691909117905562000267565b6001600160e01b031980821614156200019d576040805162461bcd60e51b815260206004820152601c60248201527f4552433136353a20696e76616c696420696e7465726661636520696400000000604482015290519081900360640190fd5b6001600160e01b0319166000908152602081905260409020805460ff19166001179055565b828054600181600116156101000203166002900490600052602060002090601f016020900481019282601f106200020557805160ff191683800117855562000235565b8280016001018555821562000235579182015b828111156200023557825182559160200191906001019062000218565b506200024392915062000247565b5090565b6200026491905b808211156200024357600081556001016200024e565b90565b61200080620002776000396000f3fe608060405234801561001057600080fd5b506004361061014d5760003560e01c80634f6ccce7116100c357806395d89b411161007c57806395d89b41146104cb578063a22cb465146104d3578063b88d4fde14610501578063c87b56dd146105c7578063e0b22a53146105e4578063e985e9c5146105ec5761014d565b80634f6ccce71461043e5780636352211e1461045b5780636c0360eb1461047857806370a082311461048057806377fbba6d146104a65780637faf0edf146104c35761014d565b806323b872dd1161011557806323b872dd1461028b5780632f745c59146102c157806342842e0e146102ed57806347e0e3bc146103235780634816edf41461037b5780634f2745bb146103985761014d565b806301ffc9a71461015257806306fdde031461018d578063081812fc1461020a578063095ea7b31461024357806318160ddd14610271575b600080fd5b6101796004803603602081101561016857600080fd5b50356001600160e01b03191661061a565b604080519115158252519081900360200190f35b61019561063d565b6040805160208082528351818301528351919283929083019185019080838360005b838110156101cf5781810151838201526020016101b7565b50505050905090810190601f1680156101fc5780820380516001836020036101000a031916815260200191505b509250505060405180910390f35b6102276004803603602081101561022057600080fd5b50356106d4565b604080516001600160a01b039092168252519081900360200190f35b61026f6004803603604081101561025957600080fd5b506001600160a01b038135169060200135610736565b005b610279610811565b60408051918252519081900360200190f35b61026f600480360360608110156102a157600080fd5b506001600160a01b03813581169160208101359091169060400135610822565b610279600480360360408110156102d757600080fd5b506001600160a01b038135169060200135610879565b61026f6004803603606081101561030357600080fd5b506001600160a01b038135811691602081013590911690604001356108aa565b61032b6108c5565b60408051602080825283518183015283519192839290830191858101910280838360005b8381101561036757818101518382015260200161034f565b505050509050019250505060405180910390f35b6102276004803603602081101561039157600080fd5b503561099f565b610279600480360360208110156103ae57600080fd5b8101906020810181356401000000008111156103c957600080fd5b8201836020820111156103db57600080fd5b803590602001918460018302840111640100000000831117156103fd57600080fd5b91908080601f0160208091040260200160405190810160405280939291908181526020018383808284376000920191909152509295506109ba945050505050565b6102796004803603602081101561045457600080fd5b5035610a52565b6102276004803603602081101561047157600080fd5b5035610a6e565b610195610a9c565b6102796004803603602081101561049657600080fd5b50356001600160a01b0316610afd565b610227600480360360208110156104bc57600080fd5b5035610b65565b610227610b80565b610195610b8f565b61026f600480360360408110156104e957600080fd5b506001600160a01b0381351690602001351515610bf0565b61026f6004803603608081101561051757600080fd5b6001600160a01b0382358116926020810135909116916040820135919081019060808101606082013564010000000081111561055257600080fd5b82018360208201111561056457600080fd5b8035906020019184600183028401116401000000008311171561058657600080fd5b91908080601f016020809104026020016040519081016040528093929190818152602001838380828437600092019190915250929550610cf5945050505050565b610195600480360360208110156105dd57600080fd5b5035610d53565b61032b610fd6565b6101796004803603604081101561060257600080fd5b506001600160a01b038135811691602001351661106c565b6001600160e01b0319811660009081526020819052604090205460ff165b919050565b60068054604080516020601f60026000196101006001881615020190951694909404938401819004810282018101909252828152606093909290918301828280156106c95780601f1061069e576101008083540402835291602001916106c9565b820191906000526020600020905b8154815290600101906020018083116106ac57829003601f168201915b505050505090505b90565b60006106df8261109a565b61071a5760405162461bcd60e51b815260040180806020018281038252602c815260200180611ec9602c913960400191505060405180910390fd5b506000908152600460205260409020546001600160a01b031690565b600061074182610a6e565b9050806001600160a01b0316836001600160a01b031614156107945760405162461bcd60e51b8152600401808060200182810382526021815260200180611f796021913960400191505060405180910390fd5b806001600160a01b03166107a66110ad565b6001600160a01b031614806107c757506107c7816107c26110ad565b61106c565b6108025760405162461bcd60e51b8152600401808060200182810382526038815260200180611e1c6038913960400191505060405180910390fd5b61080c83836110b1565b505050565b600061081d600261111f565b905090565b61083361082d6110ad565b8261112a565b61086e5760405162461bcd60e51b8152600401808060200182810382526031815260200180611f9a6031913960400191505060405180910390fd5b61080c8383836111ce565b6001600160a01b03821660009081526001602052604081206108a1908363ffffffff61132c16565b90505b92915050565b61080c83838360405180602001604052806000815250610cf5565b6060600060015b6108d6600c611338565b811161090a576000818152600b60205260409020546001600160a01b0316331415610902576001820191505b6001016108cc565b50606081604051908082528060200260200182016040528015610937578160200160208202803883390190505b509050600060015b610949600c611338565b8111610996576000818152600b60205260409020546001600160a01b031633141561098e578083838151811061097b57fe5b6020026020010181815250506001820191505b60010161093f565b50909250505090565b600b602052600090815260409020546001600160a01b031681565b60006109c6600c61133c565b60006109d2600c611338565b6000818152600b6020526040902080546001600160a01b03191633908117909155909150610a009082611345565b610a0a818461147f565b600a54610a21906001600160a01b03166001610bf0565b60405181907fb388951dac3b6dbbf0647f785eefacd87c7cf4f838b9d643690b6b4b9acf2b0890600090a292915050565b600080610a6660028463ffffffff6114e216565b509392505050565b60006108a482604051806060016040528060298152602001611e7e602991396002919063ffffffff6114fe16565b60098054604080516020601f60026000196101006001881615020190951694909404938401819004810282018101909252828152606093909290918301828280156106c95780601f1061069e576101008083540402835291602001916106c9565b60006001600160a01b038216610b445760405162461bcd60e51b815260040180806020018281038252602a815260200180611e54602a913960400191505060405180910390fd5b6001600160a01b03821660009081526001602052604090206108a49061111f565b6000908152600b60205260409020546001600160a01b031690565b600a546001600160a01b031681565b60078054604080516020601f60026000196101006001881615020190951694909404938401819004810282018101909252828152606093909290918301828280156106c95780601f1061069e576101008083540402835291602001916106c9565b610bf86110ad565b6001600160a01b0316826001600160a01b03161415610c5e576040805162461bcd60e51b815260206004820152601960248201527f4552433732313a20617070726f766520746f2063616c6c657200000000000000604482015290519081900360640190fd5b8060056000610c6b6110ad565b6001600160a01b03908116825260208083019390935260409182016000908120918716808252919093529120805460ff191692151592909217909155610caf6110ad565b60408051841515815290516001600160a01b0392909216917f17307eab39ab6107e8899845ad3d59bd9653f200f220920489ca2b5937696c319181900360200190a35050565b610d06610d006110ad565b8361112a565b610d415760405162461bcd60e51b8152600401808060200182810382526031815260200180611f9a6031913960400191505060405180910390fd5b610d4d84848484611515565b50505050565b6060610d5e8261109a565b610d995760405162461bcd60e51b815260040180806020018281038252602f815260200180611f4a602f913960400191505060405180910390fd5b60008281526008602090815260409182902080548351601f6002600019610100600186161502019093169290920491820184900484028101840190945280845260609392830182828015610e2e5780601f10610e0357610100808354040283529160200191610e2e565b820191906000526020600020905b815481529060010190602001808311610e1157829003601f168201915b505050505090506060610e3f610a9c565b9050805160001415610e5357509050610638565b815115610f145780826040516020018083805190602001908083835b60208310610e8e5780518252601f199092019160209182019101610e6f565b51815160209384036101000a600019018019909216911617905285519190930192850191508083835b60208310610ed65780518252601f199092019160209182019101610eb7565b6001836020036101000a0380198251168184511680821785525050505050509050019250505060405160208183030381529060405292505050610638565b80610f1e85611567565b6040516020018083805190602001908083835b60208310610f505780518252601f199092019160209182019101610f31565b51815160209384036101000a600019018019909216911617905285519190930192850191508083835b60208310610f985780518252601f199092019160209182019101610f79565b6001836020036101000a0380198251168184511680821785525050505050509050019250505060405160208183030381529060405292505050919050565b606080610fe233610afd565b60405190808252806020026020018201604052801561100b578160200160208202803883390190505b509050600060015b61101d600c611338565b8111611064573361102d82610a6e565b6001600160a01b0316141561105c578083838151811061104957fe5b6020026020010181815250506001820191505b600101611013565b509091505090565b6001600160a01b03918216600090815260056020908152604080832093909416825291909152205460ff1690565b60006108a460028363ffffffff61162b16565b3390565b600081815260046020526040902080546001600160a01b0319166001600160a01b03841690811790915581906110e682610a6e565b6001600160a01b03167f8c5be1e5ebec7d5bd14f71427d1e84f3dd0314c0f7b2291e5b200ac8c7c3b92560405160405180910390a45050565b60006108a482611338565b60006111358261109a565b6111705760405162461bcd60e51b815260040180806020018281038252602c815260200180611df0602c913960400191505060405180910390fd5b600061117b83610a6e565b9050806001600160a01b0316846001600160a01b031614806111b65750836001600160a01b03166111ab846106d4565b6001600160a01b0316145b806111c657506111c6818561106c565b949350505050565b826001600160a01b03166111e182610a6e565b6001600160a01b0316146112265760405162461bcd60e51b8152600401808060200182810382526029815260200180611f216029913960400191505060405180910390fd5b6001600160a01b03821661126b5760405162461bcd60e51b8152600401808060200182810382526024815260200180611dcc6024913960400191505060405180910390fd5b61127683838361080c565b6112816000826110b1565b6001600160a01b03831660009081526001602052604090206112a9908263ffffffff61163716565b506001600160a01b03821660009081526001602052604090206112d2908263ffffffff61164316565b506112e56002828463ffffffff61164f16565b5080826001600160a01b0316846001600160a01b03167fddf252ad1be2c89b69c2b068fc378daa952ba7f163c4a11628f55a4df523b3ef60405160405180910390a4505050565b60006108a18383611665565b5490565b80546001019055565b6001600160a01b0382166113a0576040805162461bcd60e51b815260206004820181905260248201527f4552433732313a206d696e7420746f20746865207a65726f2061646472657373604482015290519081900360640190fd5b6113a98161109a565b156113fb576040805162461bcd60e51b815260206004820152601c60248201527f4552433732313a20746f6b656e20616c7265616479206d696e74656400000000604482015290519081900360640190fd5b6114076000838361080c565b6001600160a01b038216600090815260016020526040902061142f908263ffffffff61164316565b506114426002828463ffffffff61164f16565b5060405181906001600160a01b038416906000907fddf252ad1be2c89b69c2b068fc378daa952ba7f163c4a11628f55a4df523b3ef908290a45050565b6114888261109a565b6114c35760405162461bcd60e51b815260040180806020018281038252602c815260200180611ef5602c913960400191505060405180910390fd5b6000828152600860209081526040909120825161080c92840190611cdf565b60008080806114f186866116c9565b9097909650945050505050565b600061150b848484611744565b90505b9392505050565b6115208484846111ce565b61152c8484848461180e565b610d4d5760405162461bcd60e51b8152600401808060200182810382526032815260200180611d9a6032913960400191505060405180910390fd5b60608161158c57506040805180820190915260018152600360fc1b6020820152610638565b8160005b81156115a457600101600a82049150611590565b6060816040519080825280601f01601f1916602001820160405280156115d1576020820181803883390190505b50859350905060001982015b831561162257600a840660300160f81b8282806001900393508151811061160057fe5b60200101906001600160f81b031916908160001a905350600a840493506115dd565b50949350505050565b60006108a1838361198e565b60006108a183836119a6565b60006108a18383611a6c565b600061150b84846001600160a01b038516611ab6565b815460009082106116a75760405162461bcd60e51b8152600401808060200182810382526022815260200180611d786022913960400191505060405180910390fd5b8260000182815481106116b657fe5b9060005260206000200154905092915050565b81546000908190831061170d5760405162461bcd60e51b8152600401808060200182810382526022815260200180611ea76022913960400191505060405180910390fd5b600084600001848154811061171e57fe5b906000526020600020906002020190508060000154816001015492509250509250929050565b600082815260018401602052604081205482816117df5760405162461bcd60e51b81526004018080602001828103825283818151815260200191508051906020019080838360005b838110156117a457818101518382015260200161178c565b50505050905090810190601f1680156117d15780820380516001836020036101000a031916815260200191505b509250505060405180910390fd5b508460000160018203815481106117f257fe5b9060005260206000209060020201600101549150509392505050565b6000611822846001600160a01b0316611b4d565b61182e575060016111c6565b6060611954630a85bd0160e11b6118436110ad565b88878760405160240180856001600160a01b03166001600160a01b03168152602001846001600160a01b03166001600160a01b0316815260200183815260200180602001828103825283818151815260200191508051906020019080838360005b838110156118bc5781810151838201526020016118a4565b50505050905090810190601f1680156118e95780820380516001836020036101000a031916815260200191505b5095505050505050604051602081830303815290604052906001600160e01b0319166020820180516001600160e01b038381831617835250505050604051806060016040528060328152602001611d9a603291396001600160a01b038816919063ffffffff611b5316565b9050600081806020019051602081101561196d57600080fd5b50516001600160e01b031916630a85bd0160e11b1492505050949350505050565b60009081526001919091016020526040902054151590565b60008181526001830160205260408120548015611a6257835460001980830191908101906000908790839081106119d957fe5b90600052602060002001549050808760000184815481106119f657fe5b600091825260208083209091019290925582815260018981019092526040902090840190558654879080611a2657fe5b600190038181906000526020600020016000905590558660010160008781526020019081526020016000206000905560019450505050506108a4565b60009150506108a4565b6000611a78838361198e565b611aae575081546001818101845560008481526020808220909301849055845484825282860190935260409020919091556108a4565b5060006108a4565b600082815260018401602052604081205480611b1b57505060408051808201825283815260208082018481528654600181810189556000898152848120955160029093029095019182559151908201558654868452818801909252929091205561150e565b82856000016001830381548110611b2e57fe5b906000526020600020906002020160010181905550600091505061150e565b3b151590565b606061150b848460008585611b6785611b4d565b611bb8576040805162461bcd60e51b815260206004820152601d60248201527f416464726573733a2063616c6c20746f206e6f6e2d636f6e7472616374000000604482015290519081900360640190fd5b60006060866001600160a01b031685876040518082805190602001908083835b60208310611bf75780518252601f199092019160209182019101611bd8565b6001836020036101000a03801982511681845116808217855250505050505090500191505060006040518083038185875af1925050503d8060008114611c59576040519150601f19603f3d011682016040523d82523d6000602084013e611c5e565b606091505b5091509150611c6e828286611c79565b979650505050505050565b60608315611c8857508161150e565b825115611c985782518084602001fd5b60405162461bcd60e51b81526020600482018181528451602484015284518593919283926044019190850190808383600083156117a457818101518382015260200161178c565b828054600181600116156101000203166002900490600052602060002090601f016020900481019282601f10611d2057805160ff1916838001178555611d4d565b82800160010185558215611d4d579182015b82811115611d4d578251825591602001919060010190611d32565b50611d59929150611d5d565b5090565b6106d191905b80821115611d595760008155600101611d6356fe456e756d657261626c655365743a20696e646578206f7574206f6620626f756e64734552433732313a207472616e7366657220746f206e6f6e20455243373231526563656976657220696d706c656d656e7465724552433732313a207472616e7366657220746f20746865207a65726f20616464726573734552433732313a206f70657261746f7220717565727920666f72206e6f6e6578697374656e7420746f6b656e4552433732313a20617070726f76652063616c6c6572206973206e6f74206f776e6572206e6f7220617070726f76656420666f7220616c6c4552433732313a2062616c616e636520717565727920666f7220746865207a65726f20616464726573734552433732313a206f776e657220717565727920666f72206e6f6e6578697374656e7420746f6b656e456e756d657261626c654d61703a20696e646578206f7574206f6620626f756e64734552433732313a20617070726f76656420717565727920666f72206e6f6e6578697374656e7420746f6b656e4552433732314d657461646174613a2055524920736574206f66206e6f6e6578697374656e7420746f6b656e4552433732313a207472616e73666572206f6620746f6b656e2074686174206973206e6f74206f776e4552433732314d657461646174613a2055524920717565727920666f72206e6f6e6578697374656e7420746f6b656e4552433732313a20617070726f76616c20746f2063757272656e74206f776e65724552433732313a207472616e736665722063616c6c6572206973206e6f74206f776e6572206e6f7220617070726f766564a26469706673582212204122ed5fe885bc0a8265f4207ffcea8dd7d7029e33cdede93c31f0e326bd98da64736f6c63430006020033",
  "linkReferences": {},
  "deployedLinkReferences": {}
}