{
  "_format": "hh-sol-artifact-1",
  "contractName": "Marketplace",
  "sourceName": "contracts/Marketplace.sol",
  "abi": [
    {
      "inputs": [],
      "stateMutability": "nonpayable",
      "type": "constructor"
    },
    {
      "anonymous": false,
      "inputs": [
        {
          "indexed": false,
          "internalType": "uint256",
          "name": "marketItemId",
          "type": "uint256"
        },
        {
          "indexed": false,
          "internalType": "address",
          "name": "medicineContract",
          "type": "address"
        },
        {
          "indexed": false,
          "internalType": "uint256",
          "name": "tokenId",
          "type": "uint256"
        },
        {
          "indexed": false,
          "internalType": "address",
          "name": "creator",
          "type": "address"
        },
        {
          "indexed": false,
          "internalType": "address",
          "name": "seller",
          "type": "address"
        },
        {
          "indexed": false,
          "internalType": "address",
          "name": "owner",
          "type": "address"
        },
        {
          "indexed": false,
          "internalType": "uint256",
          "name": "price",
          "type": "uint256"
        },
        {
          "indexed": false,
          "internalType": "bool",
          "name": "sold",
          "type": "bool"
        },
        {
          "indexed": false,
          "internalType": "bool",
          "name": "canceled",
          "type": "bool"
        },
        {
          "indexed": false,
          "internalType": "bytes32",
          "name": "barcode",
          "type": "bytes32"
        }
      ],
      "name": "MarketItemCreated",
      "type": "event"
    },
    {
      "inputs": [
        {
          "internalType": "string",
          "name": "a",
          "type": "string"
        },
        {
          "internalType": "string",
          "name": "b",
          "type": "string"
        }
      ],
      "name": "compareStrings",
      "outputs": [
        {
          "internalType": "bool",
          "name": "",
          "type": "bool"
        }
      ],
      "stateMutability": "view",
      "type": "function"
    },
    {
      "inputs": [
        {
          "internalType": "address",
          "name": "medicineContractAddress",
          "type": "address"
        },
        {
          "internalType": "uint256",
          "name": "tokenId",
          "type": "uint256"
        },
        {
          "internalType": "uint256",
          "name": "price",
          "type": "uint256"
        },
        {
          "internalType": "bytes32",
          "name": "barcode",
          "type": "bytes32"
        }
      ],
      "name": "createItem",
      "outputs": [
        {
          "internalType": "uint256",
          "name": "",
          "type": "uint256"
        }
      ],
      "stateMutability": "payable",
      "type": "function"
    },
    {
      "inputs": [
        {
          "internalType": "address",
          "name": "medicineContractAddress",
          "type": "address"
        },
        {
          "internalType": "uint256",
          "name": "marketItemId",
          "type": "uint256"
        }
      ],
      "name": "createTrade",
      "outputs": [],
      "stateMutability": "payable",
      "type": "function"
    },
    {
      "inputs": [
        {
          "internalType": "address",
          "name": "medicineContractAddress",
          "type": "address"
        },
        {
          "internalType": "uint256",
          "name": "marketItemId",
          "type": "uint256"
        }
      ],
      "name": "deleteItem",
      "outputs": [],
      "stateMutability": "payable",
      "type": "function"
    },
    {
      "inputs": [],
      "name": "getAllItems",
      "outputs": [
        {
          "components": [
            {
              "internalType": "uint256",
              "name": "marketItemId",
              "type": "uint256"
            },
            {
              "internalType": "address",
              "name": "medicineContractAddress",
              "type": "address"
            },
            {
              "internalType": "uint256",
              "name": "tokenId",
              "type": "uint256"
            },
            {
              "internalType": "address payable",
              "name": "creator",
              "type": "address"
            },
            {
              "internalType": "address payable",
              "name": "seller",
              "type": "address"
            },
            {
              "internalType": "address payable",
              "name": "owner",
              "type": "address"
            },
            {
              "internalType": "uint256",
              "name": "price",
              "type": "uint256"
            },
            {
              "internalType": "bool",
              "name": "sold",
              "type": "bool"
            },
            {
              "internalType": "bool",
              "name": "canceled",
              "type": "bool"
            },
            {
              "internalType": "bytes32",
              "name": "barcode",
              "type": "bytes32"
            }
          ],
          "internalType": "struct Marketplace.MarketItem[]",
          "name": "",
          "type": "tuple[]"
        }
      ],
      "stateMutability": "view",
      "type": "function"
    },
    {
      "inputs": [],
      "name": "getFee",
      "outputs": [
        {
          "internalType": "uint256",
          "name": "",
          "type": "uint256"
        }
      ],
      "stateMutability": "view",
      "type": "function"
    },
    {
      "inputs": [
        {
          "internalType": "uint256",
          "name": "tokenId",
          "type": "uint256"
        }
      ],
      "name": "getItem",
      "outputs": [
        {
          "components": [
            {
              "internalType": "uint256",
              "name": "marketItemId",
              "type": "uint256"
            },
            {
              "internalType": "address",
              "name": "medicineContractAddress",
              "type": "address"
            },
            {
              "internalType": "uint256",
              "name": "tokenId",
              "type": "uint256"
            },
            {
              "internalType": "address payable",
              "name": "creator",
              "type": "address"
            },
            {
              "internalType": "address payable",
              "name": "seller",
              "type": "address"
            },
            {
              "internalType": "address payable",
              "name": "owner",
              "type": "address"
            },
            {
              "internalType": "uint256",
              "name": "price",
              "type": "uint256"
            },
            {
              "internalType": "bool",
              "name": "sold",
              "type": "bool"
            },
            {
              "internalType": "bool",
              "name": "canceled",
              "type": "bool"
            },
            {
              "internalType": "bytes32",
              "name": "barcode",
              "type": "bytes32"
            }
          ],
          "internalType": "struct Marketplace.MarketItem",
          "name": "",
          "type": "tuple"
        },
        {
          "internalType": "bool",
          "name": "",
          "type": "bool"
        }
      ],
      "stateMutability": "view",
      "type": "function"
    },
    {
      "inputs": [
        {
          "internalType": "string",
          "name": "_addressProperty",
          "type": "string"
        }
      ],
      "name": "getItemsByRoleAddress",
      "outputs": [
        {
          "components": [
            {
              "internalType": "uint256",
              "name": "marketItemId",
              "type": "uint256"
            },
            {
              "internalType": "address",
              "name": "medicineContractAddress",
              "type": "address"
            },
            {
              "internalType": "uint256",
              "name": "tokenId",
              "type": "uint256"
            },
            {
              "internalType": "address payable",
              "name": "creator",
              "type": "address"
            },
            {
              "internalType": "address payable",
              "name": "seller",
              "type": "address"
            },
            {
              "internalType": "address payable",
              "name": "owner",
              "type": "address"
            },
            {
              "internalType": "uint256",
              "name": "price",
              "type": "uint256"
            },
            {
              "internalType": "bool",
              "name": "sold",
              "type": "bool"
            },
            {
              "internalType": "bool",
              "name": "canceled",
              "type": "bool"
            },
            {
              "internalType": "bytes32",
              "name": "barcode",
              "type": "bytes32"
            }
          ],
          "internalType": "struct Marketplace.MarketItem[]",
          "name": "",
          "type": "tuple[]"
        }
      ],
      "stateMutability": "view",
      "type": "function"
    }
  ],
  "bytecode": "0x608060405266038d7ea4c6800060045534801561001b57600080fd5b50600380546001600160a01b031916331790556112068061003d6000396000f3fe60806040526004361061007b5760003560e01c80638f690e9b1161004e5780638f690e9b14610101578063bed34bba14610121578063ced72f871461014e578063ef523bf4146101635761007b565b80630c98f22e146100805780633129e7731461009557806337a14668146100cc5780634ba1d6aa146100df575b600080fd5b61009361008e366004610dbd565b610183565b005b3480156100a157600080fd5b506100b56100b0366004610ebe565b6102e3565b6040516100c3929190611138565b60405180910390f35b6100936100da366004610dbd565b6103d6565b3480156100eb57600080fd5b506100f46104e3565b6040516100c39190610fde565b61011461010f366004610de8565b610636565b6040516100c39190611157565b34801561012d57600080fd5b5061014161013c366004610e5d565b61096c565b6040516100c3919061102d565b34801561015a57600080fd5b506101146109c6565b34801561016f57600080fd5b506100f461017e366004610e22565b6109cc565b600081815260056020526040902060068101546002909101543482146101c45760405162461bcd60e51b81526004016101bb90611111565b60405180910390fd5b600083815260056020819052604080832091820180546001600160a01b0319163317905560078201805460ff1916600117905560049091015490516001600160a01b0391909116913480156108fc02929091818181858888f19350505050158015610233573d6000803e3d6000fd5b506040516323b872dd60e01b81526001600160a01b038516906323b872dd9061026490309033908690600401610fba565b600060405180830381600087803b15801561027e57600080fd5b505af1158015610292573d6000803e3d6000fd5b505050506102a06001610c78565b6003546004546040516001600160a01b039092169181156108fc0291906000818181858888f193505050501580156102dc573d6000803e3d6000fd5b5050505050565b6102eb610cc8565b6000806102f86000610c81565b90505b80156103c157610309610cc8565b506000818152600560208181526040928390208351610140810185528154815260018201546001600160a01b039081169382019390935260028201549481018590526003820154831660608201526004820154831660808201529281015490911660a0830152600681015460c0830152600781015460ff808216151560e0850152610100918290041615159083015260080154610120820152908514156103b7579250600191506103d19050565b50600019016102fb565b506103ca610cc8565b9150600090505b915091565b600081815260056020526040902060020154806104055760405162461bcd60e51b81526004016101bb90611063565b6000828152600560205260409020600401546001600160a01b0316331461043e5760405162461bcd60e51b81526004016101bb906110cf565b6040516323b872dd60e01b81526001600160a01b038416906323b872dd9061046e90309033908690600401610fba565b600060405180830381600087803b15801561048857600080fd5b505af115801561049c573d6000803e3d6000fd5b505050600083815260056020819052604090912090810180546001600160a01b03191633179055600701805461ff001916610100179055506104de6002610c78565b505050565b606060006104f16002610c81565b6104fb6001610c81565b6105056000610c81565b0303905060608160405190808252806020026020018201604052801561054557816020015b610532610cc8565b81526020019060019003908161052a5790505b509050600060015b6105576000610c81565b811161062d57610565610cc8565b506000818152600560208181526040928390208351610140810185528154815260018201546001600160a01b0390811693820193909352600282015494810194909452600381015482166060850152600481015482166080850152918201541660a08301819052600682015460c0840152600782015460ff808216151560e08601526101009182900416151590840152600890910154610120830152610624578084848151811061061257fe5b60200260200101819052506001830192505b5060010161054d565b50909250505090565b60008083116106575760405162461bcd60e51b81526004016101bb90611038565b60045434146106785760405162461bcd60e51b81526004016101bb9061109a565b6106826000610c78565b600061068e6000610c81565b90506000866001600160a01b03166377fbba6d876040518263ffffffff1660e01b81526004016106be9190611157565b60206040518083038186803b1580156106d657600080fd5b505afa1580156106ea573d6000803e3d6000fd5b505050506040513d601f19601f8201168201806040525061070e9190810190610d9a565b9050604051806101400160405280838152602001886001600160a01b03168152602001878152602001826001600160a01b03168152602001336001600160a01b0316815260200160006001600160a01b0316815260200186815260200160001515815260200160001515815260200185815250600560008481526020019081526020016000206000820151816000015560208201518160010160006101000a8154816001600160a01b0302191690836001600160a01b031602179055506040820151816002015560608201518160030160006101000a8154816001600160a01b0302191690836001600160a01b0316021790555060808201518160040160006101000a8154816001600160a01b0302191690836001600160a01b0316021790555060a08201518160050160006101000a8154816001600160a01b0302191690836001600160a01b0316021790555060c0820151816006015560e08201518160070160006101000a81548160ff0219169083151502179055506101008201518160070160016101000a81548160ff0219169083151502179055506101208201518160080155905050866001600160a01b03166323b872dd3330896040518463ffffffff1660e01b81526004016108e593929190610fba565b600060405180830381600087803b1580156108ff57600080fd5b505af1158015610913573d6000803e3d6000fd5b505050507fa5b36d8ed220214778a6a41523e6ff9301e68dd40938230fe3c6dc91f5cfb7ec828888843360008b6000808d60405161095a9a99989796959493929190611160565b60405180910390a15095945050505050565b60008160405160200161097f9190610f81565b60405160208183030381529060405280519060200120836040516020016109a69190610f81565b604051602081830303815290604052805190602001201490505b92915050565b60045490565b6060600060015b6109dd6000610c81565b8111610aad5760008181526005602081815260408084208151610140810183528154815260018201546001600160a01b03908116948201949094526002820154928101929092526003810154831660608301526004810154831660808301529283015490911660a0820152600682015460c0820152600782015460ff808216151560e084015261010091829004161515908201526008820154610120820152909190610a899087610c85565b90506001600160a01b038116331415610aa3576001840193505b50506001016109d3565b50606081604051908082528060200260200182016040528015610aea57816020015b610ad7610cc8565b815260200190600190039081610acf5790505b509050600060015b610afc6000610c81565b8111610c6e5760008181526005602081815260408084208151610140810183528154815260018201546001600160a01b03908116948201949094526002820154928101929092526003810154831660608301526004810154831660808301529283015490911660a0820152600682015460c0820152600782015460ff808216151560e084015261010091829004161515908201526008820154610120820152909190610ba89089610c85565b90506001600160a01b038116331415610c645760408051610140810182528354815260018401546001600160a01b039081166020830152600285015492820192909252600384015482166060820152600484015482166080820152600584015490911660a0820152600683015460c0820152600783015460ff808216151560e0840152610100918290041615159082015260088301546101208201528551869086908110610c5257fe5b60200260200101819052506001840193505b5050600101610af2565b5090949350505050565b80546001019055565b5490565b6000610caf826040518060400160405280600681526020016539b2b63632b960d11b81525061096c565b15610cbf575060808201516109c0565b505060a0015190565b6040805161014081018252600080825260208201819052918101829052606081018290526080810182905260a0810182905260c0810182905260e08101829052610100810182905261012081019190915290565b600082601f830112610d2c578081fd5b813567ffffffffffffffff80821115610d43578283fd5b604051601f8301601f191681016020018281118282101715610d63578485fd5b604052828152925082848301602001861015610d7e57600080fd5b8260208601602083013760006020848301015250505092915050565b600060208284031215610dab578081fd5b8151610db6816111b8565b9392505050565b60008060408385031215610dcf578081fd5b8235610dda816111b8565b946020939093013593505050565b60008060008060808587031215610dfd578182fd5b8435610e08816111b8565b966020860135965060408601359560600135945092505050565b600060208284031215610e33578081fd5b813567ffffffffffffffff811115610e49578182fd5b610e5584828501610d1c565b949350505050565b60008060408385031215610e6f578182fd5b823567ffffffffffffffff80821115610e86578384fd5b610e9286838701610d1c565b93506020850135915080821115610ea7578283fd5b50610eb485828601610d1c565b9150509250929050565b600060208284031215610ecf578081fd5b5035919050565b6001600160a01b03169052565b15159052565b805182526020810151610eff6020840182610ed6565b50604081015160408301526060810151610f1c6060840182610ed6565b506080810151610f2f6080840182610ed6565b5060a0810151610f4260a0840182610ed6565b5060c081015160c083015260e0810151610f5f60e0840182610ee3565b5061010080820151610f7382850182610ee3565b505061012090810151910152565b60008251815b81811015610fa15760208186018101518583015201610f87565b81811115610faf5782828501525b509190910192915050565b6001600160a01b039384168152919092166020820152604081019190915260600190565b6020808252825182820181905260009190848201906040850190845b818110156110215761100d838551610ee9565b928401926101409290920191600101610ffa565b50909695505050505050565b901515815260200190565b60208082526011908201527005072696365206d757374206265203e203607c1b604082015260600190565b60208082526018908201527f4d61726b6574206974656d2068617320746f2065786973740000000000000000604082015260600190565b6020808252818101527f4e65656420302e30303120657468657220666f72206c697374696e6720666565604082015260600190565b60208082526022908201527f4f6e6c792073656c6c65722063616e2063616e63656c206d61726b6574206974604082015261656d60f01b606082015260800190565b6020808252600d908201526c496e76616c696420707269636560981b604082015260600190565b61016081016111478285610ee9565b8215156101408301529392505050565b90815260200190565b998a526001600160a01b0398891660208b015260408a019790975294871660608901529286166080880152941660a086015260c085019390935291151560e08401529015156101008301526101208201526101400190565b6001600160a01b03811681146111cd57600080fd5b5056fea2646970667358221220b9aea7f55b3a5691495c21d52077c9223a4784b5a2475a389662b766d4b3d01a64736f6c63430006020033",
  "linkReferences": {},
  "deployedLinkReferences": {}
}